:100000000C9434000C9451000C9451000C94510049
:100010000C9451000C9451000C9451000C9451001C
:100020000C9451000C9451000C9451000C946200FB
:100030000C9451000C9451000C9451000C945100FC
:100040000C9451000C9451000C9453000C945100EA
:100050000C9451000C9451000C9451000C945100DC
:100060000C9451000C94510011241FBECFEFD8E026
:10007000DEBFCDBF11E0A0E0B1E0EAE2F2E002C0F5
:1000800005900D92A430B107D9F721E0A4E0B1E0CA
:1000900001C01D92A930B207E1F70E94C8000C947C
:1000A00013010C9400001F920F920FB60F921124AF
:1000B0008F9381E0809305018F910F900FBE0F9079
:1000C0001F9018951F920F920FB60F9211248F93C5
:1000D0009F938091060190910701019690930701EB
:1000E0008093060181E0809304019F918F910F908E
:1000F0000FBE0F901F9018958AB18A678AB984B590
:10010000816A84BD85B5826085BDE0EBF0E08081C9
:1001100081688083E1EBF0E0808181608083E1ECA5
:10012000F0E0808188698083E2ECF0E08081866085
:1001300080831092C5008CE08093C400E0E8F0E07A
:10014000808181608083E1E8F0E08081806180834C
:1001500081E0809388008EE380938900EFE6F0E0F1
:1001600080818260808308955C9808955C9A0895E8
:1001700080910801811105C017BC8091020188BDE2
:100180000895813021F48091020187BD18BC089543
:100190000E947C0078940E94B60041E05AE0609191
:1001A00006017091070120910501213081F58091B0
:1001B000C60090910001992379F0181634F4880F45
:1001C000809302011092080119C08195880F8093D5
:1001D00002012093080112C090910101292F30E003
:1001E000281B310987FD33952A3031051CF45093C3
:1001F000010109C0981B9093010105C0913019F4C9
:100200001092000102C04093000110920501653672
:10021000710548F2109202018091C00085FFFCCF69
:0A0220001092C600BCCFF894FFCF87
:04022A00015F64000C
:00000001FF
